:04000000E7EF02F034
:08000800046ED8CF05F0E0CF33
:1000100006F00001E9CF0CF0EACF07F0E1CF08F0DD
:10002000E2CF09F0D9CF0AF0DACF0BF0F3CF12F01C
:10003000F4CF13F0FACF14F000C00EF001C00FF0AF
:1000400002C010F003C011F0F2AA2AEF00F0F2B4DF
:1000500004EF02F0F2A830EF00F0F2B208EF02F085
:10006000F0A636EF00F0F0B02BEF02F0F0A83CEF76
:1000700000F0F0B24EEF02F00EC000F00FC001F041
:1000800010C002F011C003F00CC0E9FF07C0EAFF86
:10009000078E08C0E1FF09C0E2FF0AC0D9FF0BC00C
:1000A000DAFF12C0F3FF13C0F4FF14C0FAFF0450CC
:1000B00006C0E0FF05C0D8FF10004D7972796C6B67
:1000C0006F20416E61746F6C6969000054696D65E1
:1000D0003A2025753A257500586A9486000E82B636
:1000E000010E58129488000E82B8010E006ED8904E
:1000F000003600505812948A000E82BA010E006E2B
:1001000000360036FC0E001600505812948C000E7B
:1001100082BC010E006E003600360036F80E001666
:100120000050581258C001F0120094869488948AA6
:10013000948C8B84949400008B8094900000CCDF8E
:1001400001C057F08B90949000008B80949000D069
:1001500000D00000C1DF01C056F08B9094909496BF
:100160009498949A949C5738006EF00E00160050A4
:100170005610016E120057B002D08B9601D08B86BC
:10018000949657B202D08B9801D08B88949857B42C
:1001900002D08B9A01D08B8A949A57B602D08B9C4E
:1001A00001D08B8C949C00008B809490020E006E8A
:1001B000002EFED700D000008B90949012009490F7
:1001C000949294948B929492B0DF01C056F001BE49
:1001D000FBD7545202E18B9201D08B8294920000A3
:1001E0008B94949400008B9094905538566E0F0E1B
:1001F000561656C057F0BFDF55500F0B566E576E50
:10020000BADF1200512C01D003D0400E526E01D043
:10021000526A010E505C522652508009536E546A45
:10022000556ECDDF1200EA6A500EE96EEF500DE018
:10023000060E016E006A002EFED7012EFBD77B0E44
:10024000006E002EFED7EF2EF3D712004F50070A94
:1002500007E00B0A0AE0060A10E0020A14E018D0D0
:10026000010E506E516ECEDF18D0546A010E556EDD
:10027000A6DF020E506ED7DF10D0010E506E020EB8
:10028000516EC0DF0AD0546A100E556E98DF05D04B
:10029000010E546E4FC055F092DF12000900F55266
:1002A0000CE0F6CF4DF0F7CF4EF0F5CF4FF0CEDFAC
:1002B0004DC0F6FF4EC0F7FFF1D712003CC0EAFF79
:1002C0003BC0E9FF4FC0EFFFE92AD8B4EA2AEF6A42
:1002D0003B2AD8B43C2A12000900F6CF4DF0F7CFE4
:1002E0004EF0F5CF4FF0EADF4DC0F6FF4EC0F7FFFE
:1002F0004C2EF2D7D6EF01F04F50016A4E5C03E26C
:100300004EC000F00CD0006A080E506E4E3600361B
:100310004F50005CD8B0006E0136502EF7D7120057
:1003200001504CC04EF0640E4F6EE6DF00C04CF042
:100330000150300E07E14DA20CD04DB60AD04DB899
:10034000200E03D04D964D984D80012601C04FF0F0
:10035000B5DF4CC04EF00A0E4F6ECEDF00C04CF041
:100360000150300E06E14DB608D04DA006D04DB874
:10037000200E012601C04FF0A1DF300E4C264CC0EC
:100380004FF09CDF1200010E506E516E3BDFBA0E33
:10039000F66E000EF76E82DF3C6A1B0E3B6ECC0ED3
:1003A000F66E000EF76E060E4C6E96D71AC04CF025
:1003B0001B0E4D6EB5DF3A0E4F6E80DF19C04CF04C
:1003C0001B0E4D6EADDF010E506E020E516E1ADF28
:1003D0001B0E4F6E3BDFFDEF01F0640E1726000E83
:1003E00018221850020809E2FF0A03E11750E70833
:1003F00004E2192A186A176AC6D719503B0802E1A5
:100400001A2A196A05EF02F0E8D7F2943CEF00F0DF
:10041000010E506E040E516EF5DE4A0EF66E040E9D
:10042000F76E3CDF4C6A4C5004080CE3939E8A8EB6
:10043000C80E506EF8DE939E8A9EC80E506EF3DE94
:100440004C2AF1D7F2923CEF00F0496E746572725B
:10045000757074203000010E506E040E516ED2DEA5
:10046000900EF66E040EF76E19DF4C6A4C500408BD
:100470000CE3939C8A8CC80E506ED5DE939C8A9CAC
:10048000C80E506ED0DE4C2AF1D7F0903CEF00F051
:10049000496E74657272757074203100010E506E71
:1004A000040E516EAFDED60EF66E040EF76EF6DE5B
:1004B0004C6A4C5004080CE3939A8A8AC80E506E1A
:1004C000B2DE939A8A9AC80E506EADDE4C2AF1D7EE
:1004D000F0923CEF00F0496E746572727570742092
:1004E0003200820ED56ECD6A000ECA6E000ECB6E43
:1004F000B16AF28AF288F086F0889D8AC00EF21204
:10050000F19EF5EF02F0280E416E0C0E426E010EC8
:10051000436E060E446E8B9094908B9294928B94C3
:10052000949494969498949A949C9490949294947D
:10053000166AF2BE168EF29E0F0E506E74DE16BE56
:10054000F28E010E406E4050030814E3166AF2BEAC
:10055000168EF29E030E576E0EDE16BEF28E166AD1
:10056000F2BE168EF29E050E506E5DDE16BEF28E47
:10057000402AE9D7166AF2BE168EF29E020E576E18
:10058000FADD16BEF28E166AF2BE168EF29E050EC9
:10059000506E49DE16BEF28E406A4050030815E3E5
:1005A000036A4050410FE96E000E0320EA6EEFCF60
:1005B00045F0166AF2BE168EF29E546A45C055F09A
:1005C000FEDD16BEF28E402AE8D7F8EF02F0F86A98
:1005D000D09E078E186A176A196A1A6A3C6A3B6AC3
:1005E000C180C182C184C1967CD71F0E936E8BD708
:1005F000040E406E166AF2BE168EF29EFA0E506E11
:0E06000012DE16BEF28E402EF5D7FFD7030095
:020000040030CA
:0E00000000220C0E000181000FC00FE00F4027
:00000001FF
;PIC18F252
;CRC=40C6  CREATED="02-џэт-23 12:39"
